:100000004EC08AC268C067C066C065C064C063C0B5
:1000100062C061C060C05FC05EC004030904120317
:100020006F0062006400650076002E0061007400BD
:10003000100348004900440042006F006F00740044
:100040001201100100000008C016DF0500010102C6
:1000500000010902220001010080320904000001B0
:1000600003000000092101010001222A0007058187
:10007000030800C80600FF0901A101150026FF00C2
:100080007508850195070900B202018502950609E8
:1000900000B20201850395840900B20201C0112457
:1000A0001FBECFE5D2E0DEBFCDBF10E0A0E6B0E0DE
:1000B000E0E5F7E003C0C89531960D92A236B1078E
:1000C000D1F711E0A2E6B0E001C01D92AC31B1075A
:1000D000E1F765D13BC394CF85B7826085BF8BB70D
:1000E00080648BBF08951F93CF93DF93609173005B
:1000F000635067FDBBC080917000CCE0D0E0C81BAE
:10010000D109C958DF4F80916F008D3209F09CC032
:10011000683009F0A9C083EC809363008AE580937E
:100120006000109262008881807639F0CE01F9D0AB
:10013000282F8F3F09F477C07DC09A8110926C0000
:100140008981882331F410926D008CE690E022E0E2
:1001500065C0853019F4909374005DC0863009F055
:100160004AC08B81813019F480E490E01BC082305A
:1001700041F482E590E0909372008093710022E256
:1001800036C08330F9F48A81882341F48AE190E013
:10019000909372008093710024E029C0813041F473
:1001A0008EE190E0909372008093710022E11FC075
:1001B0008230E1F480E390E09093720080937100CC
:1001C00020E115C0813241F484E690E09093720002
:1001D0008093710029E00BC0823241F484E790E003
:1001E00090937200809371002AE201C020E080E4C5
:1001F000809362001FC0883019F486E790E009C040
:10020000893019F49093760006C08A3021F48CE688
:1002100090E021E003C08CE690E020E09093720033
:100220008093710007C0888187FD2E8180E88093CC
:10023000620006C08F81882319F48E81821708F02E
:10024000822F8093610010C08091620087FF0CC0F4
:10025000CE01C1D08F3F21F48EE18093600004C0B5
:10026000882311F010926100109273008091600059
:1002700084FF49C0809161008F3F09F444C0182F6A
:10028000893008F018E0811B809361008091630041
:1002900098E8892780936300112341F12091710030
:1002A000309172008091620086FF0DC0A4E6B0E03C
:1002B00080E090E0F901E80FF91FE491ED930196D9
:1002C0001817C1F708C0912FD901E4E6F0E08D912D
:1002D00081939150E1F71150812F90E01F5F0196BB
:1002E000820F931F909372008093710084E690E0D8
:1002F000612F0ED1612F6C5F6C3019F08FEF8093FE
:1003000061006093600094E180B38C7031F491508F
:10031000D9F71092740010926E00DF91CF911F9167
:100320000895FC018181893081F48281823021F439
:1003300010928D0087E005C08330A9F410928D00E3
:1003400085E880938E008FEF0895813061F48FE807
:1003500090E0909372008093710088B382708093D4
:100360008F0088E0089580E00895382F80E020E035
:1003700042E437FF02C0C39A01C0C398942F9A95F4
:10038000F1F7C59A880FB4998160942F9A95F1F787
:10039000C5982F5F283011F0330FEBCF089519BEA9
:1003A0001FBC1EBCB99AC19A97DE8B9A20E048E820
:1003B00053E104C0A895CA010197F1F72150D1F784
:1003C0008B987894C19887B3886287BBBC98C39890
:1003D000A89589DEFDCF0F931F93E82F792F162F55
:1003E00040918D0050918E00842F90E0860F911DDA
:1003F000252F30E02817390714F4152F141B242F4C
:1004000030E029563F4FC9016E2F412F50E093D164
:1004100090918D00910F90938D0080918E00981790
:1004200011F080E05DC080919800809390008091F1
:100430009900813021F0823009F051C008C08091CC
:100440009A00882311F0C1984AC0C19A48C09730D9
:10045000A9F480919A0089DF8093910080919B009C
:1004600084DF8093920080919C007FDF80939300D3
:1004700080919D007ADF8093940031C080919A0032
:100480008F7180939A0014E000E025C0E12FF0E026
:10049000E956FF4F808169DF809391001F5FE12F54
:1004A000F0E0E956FF4F808160DF809392001F5F8C
:1004B000E12FF0E0E956FF4F808157DF80939300F2
:1004C0001F5FE12FF0E0E956FF4F1F5F80814DDF96
:1004D000809394000F5F80919A000817B8F281E032
:1004E0001F910F910895A82FB92F80E090E041E06F
:1004F00050EA609530E009C02D9182279795879545
:1005000010F084279527305EC8F36F5FA8F3089535
:10051000EADF8D939D930895CF93CFB7CF93DF9369
:10052000C395839BE9F7839B11C0839B0FC0839B7B
:100530000DC0839B0BC0839B09C0839B07C0839B1B
:1005400005C0839B03C0839B01C083C06F93C09190
:100550007000DD27C958DF4F2F9320E400C065E00D
:10056000839B03C02F916F91DECF0F931F934F9307
:1005700045E55F9355E53F933BE014E000B30C7015
:100580002EC06A95C9F03150D8F100B30C70011338
:100590000BC008942795299320E4555500F46A95DB
:1005A00069F701E060B30BC0102F66E02695299330
:1005B00020E4555518F3E2CF0FEF60B30000162F7B
:1005C000455500F0404066E01C700030E2F221F03A
:1005D000000000B30C7003C000B30C70A9F001134D
:1005E00009C00894279568F200C06A95A9F700E051
:1005F00060B3E5CF102F66E0269528F20000ECCF1F
:1006000010E41ABF002719C03B503195C31BD040DE
:1006100010E41ABF0881033C09F10B34F9F0209172
:100620006E001981110F1213EDCF4A81441F093654
:1006300051F10D3211F0013E29F7009375003F9101
:100640005F914F911F910F912F916F91CAB7C6FD86
:1006500067CFDF91CF91CFBFCF91189520917500D3
:10066000222369F310917300112339F534303AF1E4
:100670003093730020936F00109170003BE0311BAA
:10068000309370001CC0009173000130B4F40AE58F
:100690004F7099F43091600034FD12C000936000F7
:1006A000C3E6D0E011C0052710E000C002BB19C0AE
:1006B000052710E0221F00C01DC04AE502C032ED30
:1006C000432FC4E1D0E032E011B31C60939A02B32F
:1006D00011BB5CE020E869E420FF052702BB2795F9
:1006E000179500C000001C3FF0F66695A8F7A1F72B
:1006F00020FF052702BB2795179500001C3FC0F679
:1007000029913A9541F7037F10917400110F02BBB4
:10071000C651D04011F010936E0010E41ABF08606B
:1007200011B3137F402F437F55E05A95F1F702BB79
:1007300011BB42BB84CFE62FF72FA82FB92F02C0E1
:1007400001900D9241505040D8F70895F894FFCF92
:020750005AFF4E
:00000001FF
